{
  "_format": "hh-sol-artifact-1",
  "contractName": "NFTMarket",
  "sourceName": "contracts/NFTMarket.sol",
  "abi": [
    {
      "inputs": [],
      "stateMutability": "nonpayable",
      "type": "constructor"
    },
    {
      "anonymous": false,
      "inputs": [
        {
          "indexed": true,
          "internalType": "uint256",
          "name": "itemId",
          "type": "uint256"
        },
        {
          "indexed": true,
          "internalType": "address",
          "name": "nftContract",
          "type": "address"
        },
        {
          "indexed": true,
          "internalType": "uint256",
          "name": "tokenId",
          "type": "uint256"
        },
        {
          "indexed": false,
          "internalType": "address",
          "name": "seller",
          "type": "address"
        },
        {
          "indexed": false,
          "internalType": "address",
          "name": "owner",
          "type": "address"
        },
        {
          "indexed": false,
          "internalType": "uint256",
          "name": "price",
          "type": "uint256"
        },
        {
          "indexed": false,
          "internalType": "bool",
          "name": "sold",
          "type": "bool"
        }
      ],
      "name": "MarketItemCreated",
      "type": "event"
    },
    {
      "inputs": [
        {
          "internalType": "address",
          "name": "nftContract",
          "type": "address"
        },
        {
          "internalType": "uint256",
          "name": "tokenId",
          "type": "uint256"
        },
        {
          "internalType": "uint256",
          "name": "price",
          "type": "uint256"
        }
      ],
      "name": "createMarketItem",
      "outputs": [],
      "stateMutability": "payable",
      "type": "function"
    },
    {
      "inputs": [
        {
          "internalType": "address",
          "name": "nftContract",
          "type": "address"
        },
        {
          "internalType": "uint256",
          "name": "itemId",
          "type": "uint256"
        }
      ],
      "name": "createMarketSale",
      "outputs": [],
      "stateMutability": "payable",
      "type": "function"
    },
    {
      "inputs": [],
      "name": "getItemsCreated",
      "outputs": [
        {
          "components": [
            {
              "internalType": "uint256",
              "name": "itemId",
              "type": "uint256"
            },
            {
              "internalType": "address",
              "name": "nftContract",
              "type": "address"
            },
            {
              "internalType": "uint256",
              "name": "tokenId",
              "type": "uint256"
            },
            {
              "internalType": "address payable",
              "name": "seller",
              "type": "address"
            },
            {
              "internalType": "address payable",
              "name": "owner",
              "type": "address"
            },
            {
              "internalType": "uint256",
              "name": "price",
              "type": "uint256"
            },
            {
              "internalType": "bool",
              "name": "sold",
              "type": "bool"
            }
          ],
          "internalType": "struct NFTMarket.MarketItem[]",
          "name": "",
          "type": "tuple[]"
        }
      ],
      "stateMutability": "view",
      "type": "function"
    },
    {
      "inputs": [],
      "name": "getListingPrice",
      "outputs": [
        {
          "internalType": "uint256",
          "name": "",
          "type": "uint256"
        }
      ],
      "stateMutability": "view",
      "type": "function"
    },
    {
      "inputs": [],
      "name": "getMarketItems",
      "outputs": [
        {
          "components": [
            {
              "internalType": "uint256",
              "name": "itemId",
              "type": "uint256"
            },
            {
              "internalType": "address",
              "name": "nftContract",
              "type": "address"
            },
            {
              "internalType": "uint256",
              "name": "tokenId",
              "type": "uint256"
            },
            {
              "internalType": "address payable",
              "name": "seller",
              "type": "address"
            },
            {
              "internalType": "address payable",
              "name": "owner",
              "type": "address"
            },
            {
              "internalType": "uint256",
              "name": "price",
              "type": "uint256"
            },
            {
              "internalType": "bool",
              "name": "sold",
              "type": "bool"
            }
          ],
          "internalType": "struct NFTMarket.MarketItem[]",
          "name": "",
          "type": "tuple[]"
        }
      ],
      "stateMutability": "view",
      "type": "function"
    },
    {
      "inputs": [],
      "name": "getMyNFTs",
      "outputs": [
        {
          "components": [
            {
              "internalType": "uint256",
              "name": "itemId",
              "type": "uint256"
            },
            {
              "internalType": "address",
              "name": "nftContract",
              "type": "address"
            },
            {
              "internalType": "uint256",
              "name": "tokenId",
              "type": "uint256"
            },
            {
              "internalType": "address payable",
              "name": "seller",
              "type": "address"
            },
            {
              "internalType": "address payable",
              "name": "owner",
              "type": "address"
            },
            {
              "internalType": "uint256",
              "name": "price",
              "type": "uint256"
            },
            {
              "internalType": "bool",
              "name": "sold",
              "type": "bool"
            }
          ],
          "internalType": "struct NFTMarket.MarketItem[]",
          "name": "",
          "type": "tuple[]"
        }
      ],
      "stateMutability": "view",
      "type": "function"
    }
  ],
  "bytecode": "0x60806040526601c6bf5263400060045534801561001b57600080fd5b50600160008190555033600360006101000a81548173ffffffffffffffffffffffffffffffffffffffff021916908373ffffffffffffffffffffffffffffffffffffffff160217905550611c23806100746000396000f3fe6080604052600436106100555760003560e01c806312e855851461005a57806329aa3a421461008557806358eb2df5146100b0578063629cb2e4146100cc578063c23b139e146100f7578063e8b08f0414610113575b600080fd5b34801561006657600080fd5b5061006f61013e565b60405161007c9190611862565b60405180910390f35b34801561009157600080fd5b5061009a610148565b6040516100a7919061179e565b60405180910390f35b6100ca60048036038101906100c591906114a1565b6104b4565b005b3480156100d857600080fd5b506100e1610818565b6040516100ee919061179e565b60405180910390f35b610111600480360381019061010c9190611465565b610bc8565b005b34801561011f57600080fd5b50610128610e81565b604051610135919061179e565b60405180910390f35b6000600454905090565b60606101886040518060400160405280600781526020017f72756e6e696e6700000000000000000000000000000000000000000000000000815250611235565b600061019460016112ce565b905060006101a260026112ce565b826101ad919061195f565b905060006101bc8383836112dc565b60008267ffffffffffffffff8111156101fe577f4e487b7100000000000000000000000000000000000000000000000000000000600052604160045260246000fd5b60405190808252806020026020018201604052801561023757816020015b6102246113ba565b81526020019060019003908161021c5790505b50905060005b848110156104a957600073ffffffffffffffffffffffffffffffffffffffff166005600060018461026e9190611909565b815260200190815260200160002060040160009054906101000a900473ffffffffffffffffffffffffffffffffffffffff1673ffffffffffffffffffffffffffffffffffffffff161415610496576000600560006001846102cf9190611909565b81526020019081526020016000206000015490506000600560008381526020019081526020016000209050806040518060e0016040529081600082015481526020016001820160009054906101000a900473ffffffffffffffffffffffffffffffffffffffff1673ffffffffffffffffffffffffffffffffffffffff1673ffffffffffffffffffffffffffffffffffffffff168152602001600282015481526020016003820160009054906101000a900473ffffffffffffffffffffffffffffffffffffffff1673ffffffffffffffffffffffffffffffffffffffff1673ffffffffffffffffffffffffffffffffffffffff1681526020016004820160009054906101000a900473ffffffffffffffffffffffffffffffffffffffff1673ffffffffffffffffffffffffffffffffffffffff1673ffffffffffffffffffffffffffffffffffffffff168152602001600582015481526020016006820160009054906101000a900460ff16151515158152505084868151811061047a577f4e487b7100000000000000000000000000000000000000000000000000000000600052603260045260246000fd5b6020026020010181905250848061049090611a20565b95505050505b80806104a190611a20565b91505061023d565b508094505050505090565b600260005414156104fa576040517f08c379a00000000000000000000000000000000000000000000000000000000081526004016104f190611822565b60405180910390fd5b600260008190555060008111610545576040517f08c379a000000000000000000000000000000000000000000000000000000000815260040161053c90611842565b60405180910390fd5b6004543414610589576040517f08c379a000000000000000000000000000000000000000000000000000000000815260040161058090611802565b60405180910390fd5b610593600161137b565b600061059f60016112ce565b90506040518060e001604052808281526020018573ffffffffffffffffffffffffffffffffffffffff1681526020018481526020013373ffffffffffffffffffffffffffffffffffffffff168152602001600073ffffffffffffffffffffffffffffffffffffffff16815260200183815260200160001515815250600560008381526020019081526020016000206000820151816000015560208201518160010160006101000a81548173ffffffffffffffffffffffffffffffffffffffff021916908373ffffffffffffffffffffffffffffffffffffffff1602179055506040820151816002015560608201518160030160006101000a81548173ffffffffffffffffffffffffffffffffffffffff021916908373ffffffffffffffffffffffffffffffffffffffff16021790555060808201518160040160006101000a81548173ffffffffffffffffffffffffffffffffffffffff021916908373ffffffffffffffffffffffffffffffffffffffff16021790555060a0820151816005015560c08201518160060160006101000a81548160ff0219169083151502179055509050508373ffffffffffffffffffffffffffffffffffffffff166323b872dd3330866040518463ffffffff1660e01b815260040161078093929190611722565b600060405180830381600087803b15801561079a57600080fd5b505af11580156107ae573d6000803e3d6000fd5b50505050828473ffffffffffffffffffffffffffffffffffffffff16827f045dfa01dcba2b36aba1d3dc4a874f4b0c5d2fbeb8d2c4b34a7d88c8d8f929d13360008760006040516108029493929190611759565b60405180910390a4506001600081905550505050565b6060600061082660016112ce565b905060008060005b838110156108cf573373ffffffffffffffffffffffffffffffffffffffff166005600060018461085e9190611909565b815260200190815260200160002060040160009054906101000a900473ffffffffffffffffffffffffffffffffffffffff1673ffffffffffffffffffffffffffffffffffffffff1614156108bc576001836108b99190611909565b92505b80806108c790611a20565b91505061082e565b5060008267ffffffffffffffff811115610912577f4e487b7100000000000000000000000000000000000000000000000000000000600052604160045260246000fd5b60405190808252806020026020018201604052801561094b57816020015b6109386113ba565b8152602001906001900390816109305790505b50905060005b84811015610bbd573373ffffffffffffffffffffffffffffffffffffffff16600560006001846109819190611909565b815260200190815260200160002060040160009054906101000a900473ffffffffffffffffffffffffffffffffffffffff1673ffffffffffffffffffffffffffffffffffffffff161415610baa576000600560006001846109e29190611909565b81526020019081526020016000206000015490506000600560008381526020019081526020016000209050806040518060e0016040529081600082015481526020016001820160009054906101000a900473ffffffffffffffffffffffffffffffffffffffff1673ffffffffffffffffffffffffffffffffffffffff1673ffffffffffffffffffffffffffffffffffffffff168152602001600282015481526020016003820160009054906101000a900473ffffffffffffffffffffffffffffffffffffffff1673ffffffffffffffffffffffffffffffffffffffff1673ffffffffffffffffffffffffffffffffffffffff1681526020016004820160009054906101000a900473ffffffffffffffffffffffffffffffffffffffff1673ffffffffffffffffffffffffffffffffffffffff1673ffffffffffffffffffffffffffffffffffffffff168152602001600582015481526020016006820160009054906101000a900460ff161515151581525050848681518110610b8d577f4e487b7100000000000000000000000000000000000000000000000000000000600052603260045260246000fd5b6020026020010181905250600185610ba59190611909565b945050505b8080610bb590611a20565b915050610951565b508094505050505090565b60026000541415610c0e576040517f08c379a0000000000000000000000000000000000000000000000000000000008152600401610c0590611822565b60405180910390fd5b6002600081905550600060056000838152602001908152602001600020600501549050600060056000848152602001908152602001600020600201549050813414610c8e576040517f08c379a0000000000000000000000000000000000000000000000000000000008152600401610c85906117e2565b60405180910390fd5b6005600084815260200190815260200160002060030160009054906101000a900473ffffffffffffffffffffffffffffffffffffffff1673ffffffffffffffffffffffffffffffffffffffff166108fc349081150290604051600060405180830381858888f19350505050158015610d0a573d6000803e3d6000fd5b508373ffffffffffffffffffffffffffffffffffffffff166323b872dd3033846040518463ffffffff1660e01b8152600401610d4893929190611722565b600060405180830381600087803b158015610d6257600080fd5b505af1158015610d76573d6000803e3d6000fd5b50505050336005600085815260200190815260200160002060040160006101000a81548173ffffffffffffffffffffffffffffffffffffffff021916908373ffffffffffffffffffffffffffffffffffffffff16021790555060016005600085815260200190815260200160002060060160006101000a81548160ff021916908315150217905550610e08600261137b565b600360009054906101000a900473ffffffffffffffffffffffffffffffffffffffff1673ffffffffffffffffffffffffffffffffffffffff166108fc6004549081150290604051600060405180830381858888f19350505050158015610e72573d6000803e3d6000fd5b50505060016000819055505050565b60606000610e8f60016112ce565b90506000806004905060005b83811015610f3c573373ffffffffffffffffffffffffffffffffffffffff1660056000600184610ecb9190611909565b815260200190815260200160002060030160009054906101000a900473ffffffffffffffffffffffffffffffffffffffff1673ffffffffffffffffffffffffffffffffffffffff161415610f2957600183610f269190611909565b92505b8080610f3490611a20565b915050610e9b565b5060008267ffffffffffffffff811115610f7f577f4e487b7100000000000000000000000000000000000000000000000000000000600052604160045260246000fd5b604051908082528060200260200182016040528015610fb857816020015b610fa56113ba565b815260200190600190039081610f9d5790505b50905060005b8481101561122a573373ffffffffffffffffffffffffffffffffffffffff1660056000600184610fee9190611909565b815260200190815260200160002060030160009054906101000a900473ffffffffffffffffffffffffffffffffffffffff1673ffffffffffffffffffffffffffffffffffffffff1614156112175760006005600060018461104f9190611909565b81526020019081526020016000206000015490506000600560008381526020019081526020016000209050806040518060e0016040529081600082015481526020016001820160009054906101000a900473ffffffffffffffffffffffffffffffffffffffff1673ffffffffffffffffffffffffffffffffffffffff1673ffffffffffffffffffffffffffffffffffffffff168152602001600282015481526020016003820160009054906101000a900473ffffffffffffffffffffffffffffffffffffffff1673ffffffffffffffffffffffffffffffffffffffff1673ffffffffffffffffffffffffffffffffffffffff1681526020016004820160009054906101000a900473ffffffffffffffffffffffffffffffffffffffff1673ffffffffffffffffffffffffffffffffffffffff1673ffffffffffffffffffffffffffffffffffffffff168152602001600582015481526020016006820160009054906101000a900460ff1615151515815250508486815181106111fa577f4e487b7100000000000000000000000000000000000000000000000000000000600052603260045260246000fd5b60200260200101819052506001856112129190611909565b945050505b808061122290611a20565b915050610fbe565b508094505050505090565b6112cb8160405160240161124991906117c0565b6040516020818303038152906040527f41304fac000000000000000000000000000000000000000000000000000000007bffffffffffffffffffffffffffffffffffffffffffffffffffffffff19166020820180517bffffffffffffffffffffffffffffffffffffffffffffffffffffffff8381831617835250505050611391565b50565b600081600001549050919050565b6113768383836040516024016112f49392919061187d565b6040516020818303038152906040527fe7820a74000000000000000000000000000000000000000000000000000000007bffffffffffffffffffffffffffffffffffffffffffffffffffffffff19166020820180517bffffffffffffffffffffffffffffffffffffffffffffffffffffffff8381831617835250505050611391565b505050565b6001816000016000828254019250508190555050565b60008151905060006a636f6e736f6c652e6c6f679050602083016000808483855afa5050505050565b6040518060e0016040528060008152602001600073ffffffffffffffffffffffffffffffffffffffff16815260200160008152602001600073ffffffffffffffffffffffffffffffffffffffff168152602001600073ffffffffffffffffffffffffffffffffffffffff168152602001600081526020016000151581525090565b60008135905061144a81611bbf565b92915050565b60008135905061145f81611bd6565b92915050565b6000806040838503121561147857600080fd5b60006114868582860161143b565b925050602061149785828601611450565b9150509250929050565b6000806000606084860312156114b657600080fd5b60006114c48682870161143b565b93505060206114d586828701611450565b92505060406114e686828701611450565b9150509250925092565b60006114fc8383611676565b60e08301905092915050565b611511816119a5565b82525050565b61152081611993565b82525050565b61152f81611993565b82525050565b6000611540826118c4565b61154a81856118e7565b9350611555836118b4565b8060005b8381101561158657815161156d88826114f0565b9750611578836118da565b925050600181019050611559565b5085935050505092915050565b61159c816119b7565b82525050565b6115ab816119b7565b82525050565b60006115bc826118cf565b6115c681856118f8565b93506115d68185602086016119ed565b6115df81611a98565b840191505092915050565b60006115f76041836118f8565b915061160282611aa9565b606082019050919050565b600061161a6024836118f8565b915061162582611b1e565b604082019050919050565b600061163d601f836118f8565b915061164882611b6d565b602082019050919050565b6000611660601c836118f8565b915061166b82611b96565b602082019050919050565b60e08201600082015161168c6000850182611704565b50602082015161169f6020850182611517565b5060408201516116b26040850182611704565b5060608201516116c56060850182611508565b5060808201516116d86080850182611508565b5060a08201516116eb60a0850182611704565b5060c08201516116fe60c0850182611593565b50505050565b61170d816119e3565b82525050565b61171c816119e3565b82525050565b60006060820190506117376000830186611526565b6117446020830185611526565b6117516040830184611713565b949350505050565b600060808201905061176e6000830187611526565b61177b6020830186611526565b6117886040830185611713565b61179560608301846115a2565b95945050505050565b600060208201905081810360008301526117b88184611535565b905092915050565b600060208201905081810360008301526117da81846115b1565b905092915050565b600060208201905081810360008301526117fb816115ea565b9050919050565b6000602082019050818103600083015261181b8161160d565b9050919050565b6000602082019050818103600083015261183b81611630565b9050919050565b6000602082019050818103600083015261185b81611653565b9050919050565b60006020820190506118776000830184611713565b92915050565b60006060820190506118926000830186611713565b61189f6020830185611713565b6118ac6040830184611713565b949350505050565b6000819050602082019050919050565b600081519050919050565b600081519050919050565b6000602082019050919050565b600082825260208201905092915050565b600082825260208201905092915050565b6000611914826119e3565b915061191f836119e3565b9250827fffffffffffffffffffffffffffffffffffffffffffffffffffffffffffffffff0382111561195457611953611a69565b5b828201905092915050565b600061196a826119e3565b9150611975836119e3565b92508282101561198857611987611a69565b5b828203905092915050565b600061199e826119c3565b9050919050565b60006119b0826119c3565b9050919050565b60008115159050919050565b600073ffffffffffffffffffffffffffffffffffffffff82169050919050565b6000819050919050565b60005b83811015611a0b5780820151818401526020810190506119f0565b83811115611a1a576000848401525b50505050565b6000611a2b826119e3565b91507fffffffffffffffffffffffffffffffffffffffffffffffffffffffffffffffff821415611a5e57611a5d611a69565b5b600182019050919050565b7f4e487b7100000000000000000000000000000000000000000000000000000000600052601160045260246000fd5b6000601f19601f8301169050919050565b7f506c65617365207375626d6974207468652061736b696e67207072696365206960008201527f6e206f7264657220746f20636f6d706c6574652074686973207075726368617360208201527f6500000000000000000000000000000000000000000000000000000000000000604082015250565b7f5072696365206d75737420626520657175616c20746f206c697374696e67207060008201527f7269636500000000000000000000000000000000000000000000000000000000602082015250565b7f5265656e7472616e637947756172643a207265656e7472616e742063616c6c00600082015250565b7f5072696365206d757374206265206174206c6561737420312077656900000000600082015250565b611bc881611993565b8114611bd357600080fd5b50565b611bdf816119e3565b8114611bea57600080fd5b5056fea26469706673582212207a82c65dfc99a951e4d11bac289df621886dbcb5b634bfb6a40b463bf8e2246064736f6c63430008040033",
  "linkReferences": {},
  "deployedLinkReferences": {}
}