{
  "_format": "hh-sol-artifact-1",
  "contractName": "NFTMarket",
  "sourceName": "contracts/NFTMarket.sol",
  "abi": [
    {
      "inputs": [],
      "stateMutability": "nonpayable",
      "type": "constructor"
    },
    {
      "anonymous": false,
      "inputs": [
        {
          "indexed": true,
          "internalType": "uint256",
          "name": "itemId",
          "type": "uint256"
        },
        {
          "indexed": true,
          "internalType": "address",
          "name": "nftContract",
          "type": "address"
        },
        {
          "indexed": true,
          "internalType": "uint256",
          "name": "tokenId",
          "type": "uint256"
        },
        {
          "indexed": false,
          "internalType": "address",
          "name": "seller",
          "type": "address"
        },
        {
          "indexed": false,
          "internalType": "address",
          "name": "owner",
          "type": "address"
        },
        {
          "indexed": false,
          "internalType": "uint256",
          "name": "price",
          "type": "uint256"
        },
        {
          "indexed": false,
          "internalType": "bool",
          "name": "sold",
          "type": "bool"
        }
      ],
      "name": "MarketItemCreated",
      "type": "event"
    },
    {
      "inputs": [
        {
          "internalType": "address",
          "name": "nftContract",
          "type": "address"
        },
        {
          "internalType": "uint256",
          "name": "tokenId",
          "type": "uint256"
        },
        {
          "internalType": "uint256",
          "name": "price",
          "type": "uint256"
        }
      ],
      "name": "createMarketItem",
      "outputs": [],
      "stateMutability": "payable",
      "type": "function"
    },
    {
      "inputs": [
        {
          "internalType": "address",
          "name": "nftContract",
          "type": "address"
        },
        {
          "internalType": "uint256",
          "name": "itemId",
          "type": "uint256"
        }
      ],
      "name": "createMarketSale",
      "outputs": [],
      "stateMutability": "payable",
      "type": "function"
    },
    {
      "inputs": [],
      "name": "getItemsCreated",
      "outputs": [
        {
          "components": [
            {
              "internalType": "uint256",
              "name": "itemId",
              "type": "uint256"
            },
            {
              "internalType": "address",
              "name": "nftContract",
              "type": "address"
            },
            {
              "internalType": "uint256",
              "name": "tokenId",
              "type": "uint256"
            },
            {
              "internalType": "address payable",
              "name": "seller",
              "type": "address"
            },
            {
              "internalType": "address payable",
              "name": "owner",
              "type": "address"
            },
            {
              "internalType": "uint256",
              "name": "price",
              "type": "uint256"
            },
            {
              "internalType": "bool",
              "name": "sold",
              "type": "bool"
            }
          ],
          "internalType": "struct NFTMarket.MarketItem[]",
          "name": "",
          "type": "tuple[]"
        }
      ],
      "stateMutability": "view",
      "type": "function"
    },
    {
      "inputs": [],
      "name": "getListingPrice",
      "outputs": [
        {
          "internalType": "uint256",
          "name": "",
          "type": "uint256"
        }
      ],
      "stateMutability": "view",
      "type": "function"
    },
    {
      "inputs": [],
      "name": "getMarketItems",
      "outputs": [
        {
          "components": [
            {
              "internalType": "uint256",
              "name": "itemId",
              "type": "uint256"
            },
            {
              "internalType": "address",
              "name": "nftContract",
              "type": "address"
            },
            {
              "internalType": "uint256",
              "name": "tokenId",
              "type": "uint256"
            },
            {
              "internalType": "address payable",
              "name": "seller",
              "type": "address"
            },
            {
              "internalType": "address payable",
              "name": "owner",
              "type": "address"
            },
            {
              "internalType": "uint256",
              "name": "price",
              "type": "uint256"
            },
            {
              "internalType": "bool",
              "name": "sold",
              "type": "bool"
            }
          ],
          "internalType": "struct NFTMarket.MarketItem[]",
          "name": "",
          "type": "tuple[]"
        }
      ],
      "stateMutability": "view",
      "type": "function"
    },
    {
      "inputs": [],
      "name": "getMyNFTs",
      "outputs": [
        {
          "components": [
            {
              "internalType": "uint256",
              "name": "itemId",
              "type": "uint256"
            },
            {
              "internalType": "address",
              "name": "nftContract",
              "type": "address"
            },
            {
              "internalType": "uint256",
              "name": "tokenId",
              "type": "uint256"
            },
            {
              "internalType": "address payable",
              "name": "seller",
              "type": "address"
            },
            {
              "internalType": "address payable",
              "name": "owner",
              "type": "address"
            },
            {
              "internalType": "uint256",
              "name": "price",
              "type": "uint256"
            },
            {
              "internalType": "bool",
              "name": "sold",
              "type": "bool"
            }
          ],
          "internalType": "struct NFTMarket.MarketItem[]",
          "name": "",
          "type": "tuple[]"
        }
      ],
      "stateMutability": "view",
      "type": "function"
    }
  ],
  "bytecode": "0x60806040526601c6bf5263400060045534801561001b57600080fd5b50600160008190555033600360006101000a81548173ffffffffffffffffffffffffffffffffffffffff021916908373ffffffffffffffffffffffffffffffffffffffff160217905550611993806100746000396000f3fe6080604052600436106100555760003560e01c806312e855851461005a57806329aa3a421461008557806358eb2df5146100b0578063629cb2e4146100cc578063c23b139e146100f7578063e8b08f0414610113575b600080fd5b34801561006657600080fd5b5061006f61013e565b60405161007c9190611658565b60405180910390f35b34801561009157600080fd5b5061009a610148565b6040516100a791906115b6565b60405180910390f35b6100ca60048036038101906100c591906112f2565b61046a565b005b3480156100d857600080fd5b506100e16107ce565b6040516100ee91906115b6565b60405180910390f35b610111600480360381019061010c91906112b6565b610b7e565b005b34801561011f57600080fd5b50610128610e37565b60405161013591906115b6565b60405180910390f35b6000600454905090565b6060600061015660016111e7565b9050600061016460026111e7565b8261016f9190611713565b90506000808267ffffffffffffffff8111156101b4577f4e487b7100000000000000000000000000000000000000000000000000000000600052604160045260246000fd5b6040519080825280602002602001820160405280156101ed57816020015b6101da61120b565b8152602001906001900390816101d25790505b50905060005b8481101561045f57600073ffffffffffffffffffffffffffffffffffffffff166005600060018461022491906116bd565b815260200190815260200160002060040160009054906101000a900473ffffffffffffffffffffffffffffffffffffffff1673ffffffffffffffffffffffffffffffffffffffff16141561044c5760006005600060018461028591906116bd565b81526020019081526020016000206000015490506000600560008381526020019081526020016000209050806040518060e0016040529081600082015481526020016001820160009054906101000a900473ffffffffffffffffffffffffffffffffffffffff1673ffffffffffffffffffffffffffffffffffffffff1673ffffffffffffffffffffffffffffffffffffffff168152602001600282015481526020016003820160009054906101000a900473ffffffffffffffffffffffffffffffffffffffff1673ffffffffffffffffffffffffffffffffffffffff1673ffffffffffffffffffffffffffffffffffffffff1681526020016004820160009054906101000a900473ffffffffffffffffffffffffffffffffffffffff1673ffffffffffffffffffffffffffffffffffffffff1673ffffffffffffffffffffffffffffffffffffffff168152602001600582015481526020016006820160009054906101000a900460ff161515151581525050848681518110610430577f4e487b7100000000000000000000000000000000000000000000000000000000600052603260045260246000fd5b60200260200101819052508480610446906117a1565b95505050505b8080610457906117a1565b9150506101f3565b508094505050505090565b600260005414156104b0576040517f08c379a00000000000000000000000000000000000000000000000000000000081526004016104a790611618565b60405180910390fd5b6002600081905550600081116104fb576040517f08c379a00000000000000000000000000000000000000000000000000000000081526004016104f290611638565b60405180910390fd5b600454341461053f576040517f08c379a0000000000000000000000000000000000000000000000000000000008152600401610536906115f8565b60405180910390fd5b61054960016111f5565b600061055560016111e7565b90506040518060e001604052808281526020018573ffffffffffffffffffffffffffffffffffffffff1681526020018481526020013373ffffffffffffffffffffffffffffffffffffffff168152602001600073ffffffffffffffffffffffffffffffffffffffff16815260200183815260200160001515815250600560008381526020019081526020016000206000820151816000015560208201518160010160006101000a81548173ffffffffffffffffffffffffffffffffffffffff021916908373ffffffffffffffffffffffffffffffffffffffff1602179055506040820151816002015560608201518160030160006101000a81548173ffffffffffffffffffffffffffffffffffffffff021916908373ffffffffffffffffffffffffffffffffffffffff16021790555060808201518160040160006101000a81548173ffffffffffffffffffffffffffffffffffffffff021916908373ffffffffffffffffffffffffffffffffffffffff16021790555060a0820151816005015560c08201518160060160006101000a81548160ff0219169083151502179055509050508373ffffffffffffffffffffffffffffffffffffffff166323b872dd3330866040518463ffffffff1660e01b81526004016107369392919061153a565b600060405180830381600087803b15801561075057600080fd5b505af1158015610764573d6000803e3d6000fd5b50505050828473ffffffffffffffffffffffffffffffffffffffff16827f045dfa01dcba2b36aba1d3dc4a874f4b0c5d2fbeb8d2c4b34a7d88c8d8f929d13360008760006040516107b89493929190611571565b60405180910390a4506001600081905550505050565b606060006107dc60016111e7565b905060008060005b83811015610885573373ffffffffffffffffffffffffffffffffffffffff166005600060018461081491906116bd565b815260200190815260200160002060040160009054906101000a900473ffffffffffffffffffffffffffffffffffffffff1673ffffffffffffffffffffffffffffffffffffffff1614156108725760018361086f91906116bd565b92505b808061087d906117a1565b9150506107e4565b5060008267ffffffffffffffff8111156108c8577f4e487b7100000000000000000000000000000000000000000000000000000000600052604160045260246000fd5b60405190808252806020026020018201604052801561090157816020015b6108ee61120b565b8152602001906001900390816108e65790505b50905060005b84811015610b73573373ffffffffffffffffffffffffffffffffffffffff166005600060018461093791906116bd565b815260200190815260200160002060040160009054906101000a900473ffffffffffffffffffffffffffffffffffffffff1673ffffffffffffffffffffffffffffffffffffffff161415610b605760006005600060018461099891906116bd565b81526020019081526020016000206000015490506000600560008381526020019081526020016000209050806040518060e0016040529081600082015481526020016001820160009054906101000a900473ffffffffffffffffffffffffffffffffffffffff1673ffffffffffffffffffffffffffffffffffffffff1673ffffffffffffffffffffffffffffffffffffffff168152602001600282015481526020016003820160009054906101000a900473ffffffffffffffffffffffffffffffffffffffff1673ffffffffffffffffffffffffffffffffffffffff1673ffffffffffffffffffffffffffffffffffffffff1681526020016004820160009054906101000a900473ffffffffffffffffffffffffffffffffffffffff1673ffffffffffffffffffffffffffffffffffffffff1673ffffffffffffffffffffffffffffffffffffffff168152602001600582015481526020016006820160009054906101000a900460ff161515151581525050848681518110610b43577f4e487b7100000000000000000000000000000000000000000000000000000000600052603260045260246000fd5b6020026020010181905250600185610b5b91906116bd565b945050505b8080610b6b906117a1565b915050610907565b508094505050505090565b60026000541415610bc4576040517f08c379a0000000000000000000000000000000000000000000000000000000008152600401610bbb90611618565b60405180910390fd5b6002600081905550600060056000838152602001908152602001600020600501549050600060056000848152602001908152602001600020600201549050813414610c44576040517f08c379a0000000000000000000000000000000000000000000000000000000008152600401610c3b906115d8565b60405180910390fd5b6005600084815260200190815260200160002060030160009054906101000a900473ffffffffffffffffffffffffffffffffffffffff1673ffffffffffffffffffffffffffffffffffffffff166108fc349081150290604051600060405180830381858888f19350505050158015610cc0573d6000803e3d6000fd5b508373ffffffffffffffffffffffffffffffffffffffff166323b872dd3033846040518463ffffffff1660e01b8152600401610cfe9392919061153a565b600060405180830381600087803b158015610d1857600080fd5b505af1158015610d2c573d6000803e3d6000fd5b50505050336005600085815260200190815260200160002060040160006101000a81548173ffffffffffffffffffffffffffffffffffffffff021916908373ffffffffffffffffffffffffffffffffffffffff16021790555060016005600085815260200190815260200160002060060160006101000a81548160ff021916908315150217905550610dbe60026111f5565b600360009054906101000a900473ffffffffffffffffffffffffffffffffffffffff1673ffffffffffffffffffffffffffffffffffffffff166108fc6004549081150290604051600060405180830381858888f19350505050158015610e28573d6000803e3d6000fd5b50505060016000819055505050565b60606000610e4560016111e7565b905060008060005b83811015610eee573373ffffffffffffffffffffffffffffffffffffffff1660056000600184610e7d91906116bd565b815260200190815260200160002060030160009054906101000a900473ffffffffffffffffffffffffffffffffffffffff1673ffffffffffffffffffffffffffffffffffffffff161415610edb57600183610ed891906116bd565b92505b8080610ee6906117a1565b915050610e4d565b5060008267ffffffffffffffff811115610f31577f4e487b7100000000000000000000000000000000000000000000000000000000600052604160045260246000fd5b604051908082528060200260200182016040528015610f6a57816020015b610f5761120b565b815260200190600190039081610f4f5790505b50905060005b848110156111dc573373ffffffffffffffffffffffffffffffffffffffff1660056000600184610fa091906116bd565b815260200190815260200160002060030160009054906101000a900473ffffffffffffffffffffffffffffffffffffffff1673ffffffffffffffffffffffffffffffffffffffff1614156111c95760006005600060018461100191906116bd565b81526020019081526020016000206000015490506000600560008381526020019081526020016000209050806040518060e0016040529081600082015481526020016001820160009054906101000a900473ffffffffffffffffffffffffffffffffffffffff1673ffffffffffffffffffffffffffffffffffffffff1673ffffffffffffffffffffffffffffffffffffffff168152602001600282015481526020016003820160009054906101000a900473ffffffffffffffffffffffffffffffffffffffff1673ffffffffffffffffffffffffffffffffffffffff1673ffffffffffffffffffffffffffffffffffffffff1681526020016004820160009054906101000a900473ffffffffffffffffffffffffffffffffffffffff1673ffffffffffffffffffffffffffffffffffffffff1673ffffffffffffffffffffffffffffffffffffffff168152602001600582015481526020016006820160009054906101000a900460ff1615151515815250508486815181106111ac577f4e487b7100000000000000000000000000000000000000000000000000000000600052603260045260246000fd5b60200260200101819052506001856111c491906116bd565b945050505b80806111d4906117a1565b915050610f70565b508094505050505090565b600081600001549050919050565b6001816000016000828254019250508190555050565b6040518060e0016040528060008152602001600073ffffffffffffffffffffffffffffffffffffffff16815260200160008152602001600073ffffffffffffffffffffffffffffffffffffffff168152602001600073ffffffffffffffffffffffffffffffffffffffff168152602001600081526020016000151581525090565b60008135905061129b8161192f565b92915050565b6000813590506112b081611946565b92915050565b600080604083850312156112c957600080fd5b60006112d78582860161128c565b92505060206112e8858286016112a1565b9150509250929050565b60008060006060848603121561130757600080fd5b60006113158682870161128c565b9350506020611326868287016112a1565b9250506040611337868287016112a1565b9150509250925092565b600061134d838361148e565b60e08301905092915050565b61136281611759565b82525050565b61137181611747565b82525050565b61138081611747565b82525050565b600061139182611683565b61139b818561169b565b93506113a683611673565b8060005b838110156113d75781516113be8882611341565b97506113c98361168e565b9250506001810190506113aa565b5085935050505092915050565b6113ed8161176b565b82525050565b6113fc8161176b565b82525050565b600061140f6041836116ac565b915061141a82611819565b606082019050919050565b60006114326024836116ac565b915061143d8261188e565b604082019050919050565b6000611455601f836116ac565b9150611460826118dd565b602082019050919050565b6000611478601c836116ac565b915061148382611906565b602082019050919050565b60e0820160008201516114a4600085018261151c565b5060208201516114b76020850182611368565b5060408201516114ca604085018261151c565b5060608201516114dd6060850182611359565b5060808201516114f06080850182611359565b5060a082015161150360a085018261151c565b5060c082015161151660c08501826113e4565b50505050565b61152581611797565b82525050565b61153481611797565b82525050565b600060608201905061154f6000830186611377565b61155c6020830185611377565b611569604083018461152b565b949350505050565b60006080820190506115866000830187611377565b6115936020830186611377565b6115a0604083018561152b565b6115ad60608301846113f3565b95945050505050565b600060208201905081810360008301526115d08184611386565b905092915050565b600060208201905081810360008301526115f181611402565b9050919050565b6000602082019050818103600083015261161181611425565b9050919050565b6000602082019050818103600083015261163181611448565b9050919050565b600060208201905081810360008301526116518161146b565b9050919050565b600060208201905061166d600083018461152b565b92915050565b6000819050602082019050919050565b600081519050919050565b6000602082019050919050565b600082825260208201905092915050565b600082825260208201905092915050565b60006116c882611797565b91506116d383611797565b9250827fffffffffffffffffffffffffffffffffffffffffffffffffffffffffffffffff03821115611708576117076117ea565b5b828201905092915050565b600061171e82611797565b915061172983611797565b92508282101561173c5761173b6117ea565b5b828203905092915050565b600061175282611777565b9050919050565b600061176482611777565b9050919050565b60008115159050919050565b600073ffffffffffffffffffffffffffffffffffffffff82169050919050565b6000819050919050565b60006117ac82611797565b91507fffffffffffffffffffffffffffffffffffffffffffffffffffffffffffffffff8214156117df576117de6117ea565b5b600182019050919050565b7f4e487b7100000000000000000000000000000000000000000000000000000000600052601160045260246000fd5b7f506c65617365207375626d6974207468652061736b696e67207072696365206960008201527f6e206f7264657220746f20636f6d706c6574652074686973207075726368617360208201527f6500000000000000000000000000000000000000000000000000000000000000604082015250565b7f5072696365206d75737420626520657175616c20746f206c697374696e67207060008201527f7269636500000000000000000000000000000000000000000000000000000000602082015250565b7f5265656e7472616e637947756172643a207265656e7472616e742063616c6c00600082015250565b7f5072696365206d757374206265206174206c6561737420312077656900000000600082015250565b61193881611747565b811461194357600080fd5b50565b61194f81611797565b811461195a57600080fd5b5056fea2646970667358221220e16baa344baa5c0ade91e1d3181fc5fbc83fe36ed6dd50d4beda3bf47218957864736f6c63430008040033",
  "linkReferences": {},
  "deployedLinkReferences": {}
}